:040000006FEF00F0AE
:100008004F82E1CF3EF0E2CF3FF0D9CF40F0DACFD8
:1000180041F09EAA12EF00F014EF00F064EF00F038
:10002800AECF1DF09E9A7A0E1D18D8A41EEF00F0D0
:1000380020EF00F024EF00F0010E1C6E4FEF00F0EF
:10004800790E1D18D8A42BEF00F02DEF00F031EF3A
:1000580000F0000E1C6E4FEF00F04FEF00F0310E75
:100068004D6E000E4E6E64EF00F04DC0D9FF4EC0CD
:10007800DAFF1DC0DFFF4D4A4E2A64EF00F04DC085
:10008800D9FF4EC0DAFF4DC0E1FF4EC0E2FFDFCF1F
:10009800E7FF64EF00F01C503C6E3D6A3D50000ADB
:1000A800D8B459EF00F043EF00F03C50000AD8B440
:1000B80033EF00F0010AD8B439EF00F043EF00F055
:1000C8009E9A41C0DAFF40C0D9FF3FC0E2FF3EC060
:1000D800E1FF4F92110031EF03F0310E4D6E000E2B
:1000E8004E6ED09E000EF26E90EC03F078EC03F0AA
:1000F8005EEC03F0F28EF28C6F0E426E030E92EC01
:1001080002F0210E436E000E446E010E31EC02F037
:100118000A0ECFEC03F00D0ECFEC03F0B70E436ED2
:10012800000E446E010E31EC02F00A0ECFEC03F023
:100138000D0ECFEC03F0900E436E000E446E010ED0
:1001480031EC02F00A0ECFEC03F00D0ECFEC03F009
:10015800600E436E000E446E010E31EC02F00A0E82
:10016800CFEC03F00D0ECFEC03F03250DF0F016E31
:100178003350DF0F026E3450DF0F036E3550DF0F40
:10018800046E3650DF0F056E3750DF0F066E38509D
:10019800DF0F076E000E396E310E436E000E446E8F
:1001A800010E31EC02F00D0ECFEC03F07A0E426E28
:1001B800030E92EC02F07A0E426E000E92EC02F000
:1001C80001C042F0030E92EC02F001C042F0000EB2
:1001D80092EC02F002C042F0030E92EC02F002C070
:1001E80042F0000E92EC02F003C042F0030E92ECD3
:1001F80002F003C042F0000E92EC02F004C042F09C
:10020800030E92EC02F004C042F0000E92EC02F0F1
:10021800790E426E030E92EC02F0790E426E000ED9
:1002280092EC02F00638E8461F0B010B186E0640E8
:10023800E8423F0B010B196ED8900630010B1A6E7D
:100248000650010B1B6E0538E8461F0B010B146E98
:100258000540E8423F0B010B156ED8900530010BA5
:10026800166E0550010B176E0738E842070B010B95
:100278000E6E07380F0B010B0F6E0738E8461F0B81
:10028800010B106E0740E8423F0B010B116ED8902E
:100298000730010B0C6E0750010B0D6E1F2A1F5003
:1002A800D8A459EF01F05BEF01F05FEF01F0C00E49
:1002B8003B6E6BEF01F0000E3B6E5F0E1F18D8A46B
:1002C80068EF01F06AEF01F06BEF01F01F6819C0E9
:1002D80048F0483AF00E481618C049F0050E4A6E24
:1002E800D89049364A2E74EF01F00FC04BF0060E35
:1002F8004C6ED8904B364C2E7DEF01F00E40800BA3
:100308004B104910481005101E6EBBEF01F03BC0A2
:1003180020F0ECEF01F03B500109206EECEF01F00A
:100328003B500209206EECEF01F03B500309206EB0
:10033800ECEF01F03B500409206EECEF01F03B506C
:100348000509206EECEF01F03B500609206EECEF3A
:1003580001F03B500709206EECEF01F03B50080913
:10036800206EECEF01F0000E206EECEF01F01E5055
:10037800486E496A4950000AD8B4C5EF01F0B7EF92
:1003880001F04850000AD8B48BEF01F0010AD8B444
:100398008FEF01F0030AD8B494EF01F0060AD8B43D
:1003A80099EF01F00C0AD8B49EEF01F0180AD8B4FE
:1003B800A3EF01F0300AD8B4A8EF01F0600AD8B46E
:1003C800ADEF01F0C00AD8B4B2EF01F0B7EF01F019
:1003D8002050FAEC03F018B002D0899001D089803F
:1003E80019B002D0899201D089821B50D8B4FFEF8E
:1003F80001F002EF02F0010E03EF02F0000E1A14F2
:100408000009D8B40AEF02F00CEF02F010EF02F086
:10041800A7EC03F02BEF02F01A50D8B416EF02F055
:1004280019EF02F0010E1AEF02F0000E486E496A49
:100438001B504816000E491648504910D8B427EFEB
:1004480002F029EF02F02BEF02F0BBEC03F0DEEC38
:1004580003F0B9EF00F06FEF00F0476E79EF02F0AC
:1004680043C0D9FF44C0DAFFDF50CFEC03F0434A62
:10047800442A43C0D9FF44C0DAFFDF50D8A447EF6D
:1004880002F049EF02F034EF02F08EEF02F043C0C1
:10049800D9FF44C0DAFFDF50FAEC03F0434A442A9C
:1004A80043C0D9FF44C0DAFFDF50D8A45EEF02F0A2
:1004B80060EF02F04BEF02F08EEF02F043C0D9FF7D
:1004C80044C0DAFFDF50CFEC03F0434A442A43C06C
:1004D800D9FF44C0DAFFDF50D8A475EF02F077EFF8
:1004E80002F062EF02F08EEF02F04750456E466A66
:1004F8004650000AD8B483EF02F06BEF02F0455083
:10050800010AD8B43DEF02F0030AD8B454EF02F060
:100518006BEF02F0000ECFEC03F01200446E445073
:10052800D8A499EF02F09BEF02F0AAEF02F08A94A8
:1005380042C0C9FFC7A0A3EF02F0A5EF02F09EEFEB
:1005480002F08A84C9CF43F0F1EF02F04404D8A442
:10055800B0EF02F0B2EF02F0C1EF02F08A9642C0AB
:10056800C9FFC7A0BAEF02F0BCEF02F0B5EF02F086
:100578008A86C9CF43F0F1EF02F0020E4418D8A4DE
:10058800C8EF02F0CAEF02F0D9EF02F08A9842C031
:10059800C9FFC7A0D2EF02F0D4EF02F0CDEF02F00E
:1005A8008A88C9CF43F0F1EF02F0030E4418D8A4AB
:1005B800E0EF02F0E2EF02F0F1EF02F08A9A42C0B7
:1005C800C9FFC7A0EAEF02F0ECEF02F0E5EF02F096
:1005D8008A8AC9CF43F0F1EF02F0435012005072FB
:1005E8006573732027712720616E64202765272093
:1005F800746F207475726E206C6967687420626508
:10060800616D206F666620616E64206F6E005573A1
:1006180065207269676874206A6F79737469636B9F
:1006280020746F206D6F7665207269676874207713
:100638006865656C00557365206C656674206A6F23
:1006480079737469636B20746F206D6F7665206CA5
:1006580065667420776865656C00E60EF66E050EB3
:10066800F76E000EF86E00EE60F010EE7CF00900F8
:10067800F5CFEEFFE550E150FAE1D80EF66E070E21
:10068800F76E000EF86E00EE21F010EE1BF0090078
:10069800F5CFEEFFE550E150FAE100EE01F0200E53
:1006A800EE6AE806FDE14F904F92000EF86E0001E9
:1006B80071EF00F0AC84B886728470868A0EAF6ED3
:1006C800000EB06E8A0E756E000E766E948C948E47
:1006D800958C958EAC987298AB8E718EAC8A728A16
:1006E8009D8AAB88718812001F0EC86EC79EC78C82
:1006F800C698C650F00B0A09C66E000EC26E9394D7
:1007080093969398939A94969488949A8A848A86CE
:100718008A888A8AC68A1200000E0F01386F000E76
:10072800396F000E3A6F000E3B6F000E3C6F799EDA
:10073800789E929092929294FC0E951605EC04F095
:10074800BBEC03F01200020E8C6ED00E426ECA0E85
:10075800E82EFED7422EFCD7680E426EE40EE82E35
:10076800FED7422EFCD700D0000E8C6E1200010E70
:100778008C6ED00E426ECA0EE82EFED7422EFCD7E3
:10078800680E426EE40EE82EFED7422EFCD700D04B
:10079800000E8C6E1200426E9EA8D5EF03F0D7EFC4
:1007A80003F0D0EF03F042C0ADFF050EE82EFED7F0
:1007B80000F01200ABA2E3EF03F0E5EF03F0EBEF7C
:1007C80003F0AB98150EE82EFED700F0AB881200A8
:1007D80048656C6C6F2C2057656C636F6D652100E4
:0B07E8007A31313131212121790001EB
:1007F400426EA4A800EF04F002EF04F0FBEF03F054
:0C08040042C073FF1200F80E89161200AB
:020000040020DA
:08000000FFFFFFFFFFFFFFFF00
:020000040030CA
:0E000000FF32193CFF9181FF0FC00FE00F404F
:00000001FF
